S01000006361706D657465722E73726563C3
S11300000C94F3010C9410020C9410020C94100242
S11300100C9410020C9410020C9410020C94100214
S11300200C9410020C9410020C9410020C94100204
S11300300C9410020C9410020C9474030C9410028F
S11300400C9485030C9410020C9410020C9410026E
S11300500C9410020C9410020C9410020C941002D4
S11300600C9410020C9410020C9410020C941002C4
S11300700C9410020C9410020C9410020C941002B4
S11300800C9410020C9410020C9410020C941002A4
S11300900C9410020C9410020C9410020C94100294
S11300A00C9410020C9410020C9410020C94100284
S11300B00C9410020C9410020C9410020C94100274
S11300C00C9410020C9410020C9410020C94100264
S11300D00C9410020C9410020C9410020C94100254
S11300E00C9410020C9410020C9410020C94100244
S11300F00C9410020C9410020C9410020C94100234
S11301000C9410020C9410020C9410020C94100223
S11301100C9410020C9410020C9410020C94100213
S11301200C9410020C9410020C9410020C94100203
S11301300C9410020C9410020C9410020C941002F3
S11301400C9410020C9410020C9410020C941002E3
S11301500C9410020C9410020C9410020C941002D3
S11301600C9410020C9410020C9410020C941002C3
S11301700C9410020C9410020C9410020C941002B3
S11301800C9410020C9410020C9410020C941002A3
S11301900C9410020C9410020C9410020C94100293
S11301A00C9410020C9410020C9410020C94100283
S11301B00C9410020C9410020C9410020C94100273
S11301C00C9410020C9410020C9410020C94100263
S11301D00C9410020C9410020C9410020C94100253
S11301E00C9410020C9410020C9410020C94100243
S11301F00C9410020C9410020C94100244414320FD
S1130200696E697469616C697A65640D0A00446990
S11302107361626C696E67206F70616D70696E20C6
S1130220444143206368616E6E656C0D0A00446945
S11302307361626C696E6720766269617320444100
S113024043206368616E6E656C0D0A0052657369C4
S113025073746F72204D75783A203130304B0D0A2B
S1130260005265736973746F72204D75783A20314A
S1130270304B0D0A005265736973746F72204D75AB
S1130280783A20314B0D0A005265736973746F72AA
S1130290204D75783A20323730520D0A005265737A
S11302A06973746F72204D7578204F66660D0A006D
S11302B04C444F204F66660D0A004C444F204F6E4D
S11302C00D0A00537465707570204F66660D0A0040
S11302D0537465707570204F6E0D0A004665656431
S11302E06261636B204D6F73204F66660D0A004692
S11302F06565646261636B204D6F73204F6E0D0AF8
S113030000517569657363656E7420437572204D81
S11303106561737572656D656E74204D6F73204FE2
S113032066660D0A005675702F566C6F77206361F0
S11303306C6962726174696F6E0D0A004D65617358
S11303407572656D656E74206672657175656E6330
S1130350792073657420746F20313238487A0D0A1D
S1130360004D6561737572656D656E7420667265A6
S11303707175656E63792073657420746F203634EB
S1130380487A0D0A004D6561737572656D656E740A
S1130390206672657175656E637920736574207467
S11303A06F203332487A0D0A004D656173757265AA
S11303B06D656E74206672657175656E6379207300
S11303C0657420746F2031487A0D0A005365726990
S11303D0616C20706F727420696E697469616C69F4
S11303E07A65640D0A0011241FBECFEFCDBFD7E29A
S11303F0DEBF10E2A0E0B0E2E2E5F0E102C0059069
S11304000D92AE39B107D9F720E2AEE9B0E201C0EE
S11304101D92AE3AB207E1F70E94A4020C94270899
S11304200C94000028E020932106E0E2F3E0208110
S113043028602083828F938F9F938F938EE090E226
S11304409F938F930E9448050F900F900F900F90E9
S11304500895E0E2F3E0828F938F089588E080931B
S11304602206E0E2F3E08081877F80838EE292E0DF
S11304709F938F930E945C050F900F90089524E042
S113048020932106E0E2F3E0208124602083808F22
S1130490918F9F938F9385E390E29F938F930E9414
S11304A048050F900F900F900F900895E0E2F3E04D
S11304B0808F918F089584E080932206E0E2F3E038
S11304C080818B7F80838EE092E09F938F930E9444
S11304D05C050F900F9008950E942E020E945B020B
S11304E0E0E2F3E081E0808380E4818388E1828339
S11304F08CEF91E09F938F930E945C050F900F9077
S11305000895809150008260809350008091510042
S113051081FFFCCF88ED84BF81E08093400080910F
S113052050008E7F8093500082E08093520080912F
S113053050008860809350008091510083FFFCCF6D
S113054082E08093560008950E9481022FEF87EA8B
S113055091E6215080409040E1F700C000000E94E5
S113056025050E946C020E94600387E08093A2002C
S113057078940E946E048FEF9FE70E94C60380E088
S11305800E945C0380E090E00E94150480E00E94D9
S1130590F604FCCF81E08093060681E093E09F930C
S11305A08F930E945C050F900F90089582E08093D2
S11305B025068FEE92E09F938F930E945C050F9027
S11305C00F90089582E0809326068CED92E09F932D
S11305D08F930E945C050F900F90089580E28093A2
S11305E0450680ED92E09F938F930E945C050F90E7
S11305F00F90089580E28093460683EC92E09F93E7
S11306008F930E945C050F900F90089580E1809372
S113061045068AEB92E09F938F930E945C050F90AE
S11306200F90089580E18093460680EB92E09F93BB
S11306308F930E945C050F900F900895E6E0F6E01A
S113064080E1808388E0808384E080838DE992E088
S11306509F938F930E945C050F900F90089590E1F3
S11306609093050698E080FF03C09093050602C0AE
S11306709093060694E081FF03C09093050602C0A0
S113068090930606813079F028F0823031F083307F
S113069039F0089588E892E008C085E792E005C043
S11306A081E692E002C08CE492E09F938F930E94D3
S11306B05C050F900F9008950E942F030C94D602AE
S11306C00E94CA020E94E2020E941E030E94FA02D1
S11306D00E9412038DE18093010682E0809321063B
S11306E080E38093410608951F920F920FB60F92F4
S11306F011248F9380919E208F5F80939E208F91F1
S11307000F900FBE0F901F9018951F920F920FB667
S11307100F9211242F933F934F935F938F939F9343
S1130720809128089091290820919E20213039F445
S113073020919F203091A0202817390720F0209184
S11307409E20223018F02FEF3FEF08C020919F2009
S11307503091A020AC01421B530B9A012093A62098
S11307603093A72010929E2080939F209093A020E6
S113077081E08093A5209F918F915F914F913F914C
S11307802F910F900FBE0F901F90189580930A041D
S113079090930B0421E02093000448E040938101EE
S11307A03BE03093430030E43093020630E830936A
S11307B041062093160626E52093800120E120932C
S11307C0B4002093010829E2209303082FEF3FEFA0
S11307D020932608309327084093000823E02093B1
S11307E00608209307088F3F21E0920791F020F438
S11307F08F3F910589F008958F3F23E0920731F0F0
S11308008F3F9F4789F489EA93E008C085E893E025
S113081005C081E693E002C08CE393E09F938F933D
S11308200E945C050F900F9008950F931F93CF9330
S1130830DF93EC010E94EE028FEF9FE00E94120210
S11308402FEF89EF90E0215080409040E1F700C005
S113085000000E9406032FEF89EF90E021508040B2
S11308609040E1F700C000008FEF9FE08C179D07D8
S113087059F08C01015011090E9429022AE62A9597
S1130880F1F700C0C801F2CF8FEF99EF20E081505B
S113089090402040E1F700C00000DF93CF9389E54A
S11308A090E29F938F930E9448050F900F900F90B2
S11308B00F90DF91CF911F910F9108950E94120321
S11308C00E94FA020E942E022FEF83E294EF21503D
S11308D080409040E1F700C00000089585E293E075
S11308E09F938F930E945C050E94E2022FEF89EF91
S11308F090E0215080409040E1F700C0000080E08B
S113090090E00E9415042FEF87EA91E62150804081
S11309109040E1F700C0000080E090E00E943F02B8
S11309208FEF9FE08093A1209093A2201092A320A8
S11309301092A4200F900F908091080686FF12C099
S11309408091A3209091A4209C012F5F3F4F20937E
S1130950A3203093A4200E9456022AE62A95F1F798
S113096000C0EACF8091A4208F938091A3208F931D
S113097087E790E29F938F930E9448058091A1207E
S11309809091A2200E9456028AE68A95F1F700C04F
S11309900F900F900F900F908091080686FD12C063
S11309A08091A1209091A2209C0121503109209393
S11309B0A1203093A2200E9456029AE69A95F1F75C
S11309C000C0EACF8091A2208F938091A1208F93C1
S11309D089E890E29F938F930E9448050E945B02EE
S11309E00F900F900F900F900C945E048091A520AF
S11309F0813091F41092A5208091A6209091A72097
S1130A009F938F938AE990E29F938F930E94480566
S1130A100F900F900F900F9008959091A10895FF5B
S1130A20FCCF8093A00880E090E00895CF93BC01B0
S1130A308091A10887FFFCCFC091A0088C2F0E9451
S1130A400D058C2F90E0CF91089580E090E2809383
S1130A50A8209093A9208093AA209093AB2088E0AB
S1130A608093410684E080934206E0EAF8E083E85C
S1130A70868380ED878383E0858388E184838CEC9F
S1130A8093E09F938F930E945C050F900F900895BD
S1130A90A0E0B0E0EEE4F5E00C940608FE01359623
S1130AA061917191AF018091AA209091AB200E9435
S1130AB07E05E2E00C941F08A0E0B0E0E2E6F5E079
S1130AC00C940408FE013796619171910AEA10E2D0
S1130AD0D8018D919C91DC0113962C911397286079
S1130AE013962C93AF010E947E05D801ED91FC91E1
S1130AF02381277F2383E4E00C941D08ACE0B0E05D
S1130B00E4E8F5E00C94F6077C016B018A01FC0132
S1130B1016821782838181FFBDC1CE0101964C01EB
S1130B20F7019381F60193FD859193FF81916F0104
S1130B30882309F4ABC1853239F493FD859193FF81
S1130B4081916F01853229F4B70190E00E94660714
S1130B50E7CF512C312C20E02032A0F48B3269F005
S1130B6030F4803259F0833269F420612CC08D3224
S1130B7039F0803339F4216026C02260246023C018
S1130B80286021C027FD27C030ED380F3A3078F4B3
S1130B9026FF06C0FAE05F9E300D1124532E13C0C9
S1130BA08AE0389E300D1124332E20620CC08E3220
S1130BB021F426FD6BC1206406C08C3611F4206834
S1130BC002C0883641F4F60193FD859193FF81912B
S1130BD06F018111C1CF982F9F7D9554933028F4D4
S1130BE00C5F1F4FFFE3F9830DC0833631F0833769
S1130BF071F0833509F05BC022C0F80180818983DC
S1130C000E5F1F4F44244394512C540115C03801E6
S1130C10F2E06F0E711CF801A080B18026FF03C0C2
S1130C20652D70E002C06FEF7FEFC5012C870E9435
S1130C305B072C0183012C852F77222E17C03801E6
S1130C40F2E06F0E711CF801A080B18026FF03C092
S1130C50652D70E002C06FEF7FEFC5012C870E9405
S1130C6050072C012C852068222E830123FC1BC0F5
S1130C70832D90E048165906B0F4B70180E290E065
S1130C800E9466073A94F4CFF50127FC859127FE6C
S1130C9081915F01B70190E00E94660731103A9498
S1130CA0F1E04F1A51084114510471F7E5C084363C
S1130CB011F0893639F5F80127FF07C06081718189
S1130CC0828193810C5F1F4F08C0608171818827E6
S1130CD077FD8095982F0E5F1F4F2F76B22E97FFCA
S1130CE009C090958095709561957F4F8F4F9F4F68
S1130CF02068B22E2AE030E0A4010E949807A82EB2
S1130D00A81844C0853729F42F7EB22E2AE030E09B
S1130D1025C0F22FF97FBF2E8F36C1F018F4883525
S1130D2079F0B4C0803719F0883721F0AFC02F2F85
S1130D302061B22EB4FE0DC08B2D8460B82E09C084
S1130D4024FF0AC09F2F9660B92E06C028E030E029
S1130D5005C020E130E002C020E132E0F801B7FE36
S1130D6007C060817181828193810C5F1F4F06C02F
S1130D706081718180E090E00E5F1F4FA4010E94AA
S1130D809807A82EA818FB2DFF77BF2EB6FE0BC020
S1130D902B2D2E7FA51450F4B4FE0AC0B2FC08C05B
S1130DA02B2D2E7E05C07A2C2B2D03C07A2C01C04E
S1130DB0752C24FF0DC0FE01EA0DF11D80818033E6
S1130DC011F4297E09C022FF06C07394739404C0F1
S1130DD0822F867809F0739423FD13C020FF06C088
S1130DE05A2C731418F4530C5718732C731468F496
S1130DF0B70180E290E02C870E94660773942C85EB
S1130E00F5CF731410F4371801C0312C24FF12C02D
S1130E10B70180E390E02C870E9466072C8522FFAF
S1130E2017C021FF03C088E590E002C088E790E086
S1130E30B7010CC0822F867859F021FD02C080E2F0
S1130E4001C08BE227FD8DE2B70190E00E946607A6
S1130E50A51438F4B70180E390E00E9466075A9421
S1130E60F7CFAA94F401EA0DF11D8081B70190E057
S1130E700E946607A110F5CF332009F451CEB701C3
S1130E8080E290E00E9466073A94F6CFF7018681EB
S1130E90978102C08FEF9FEF2C96E2E10C940F082C
S1130EA0FC010590615070400110D8F78095909531
S1130EB08E0F9F1F0895FC01615070400190011036
S1130EC0D8F7809590958E0F9F1F08950F931F93C9
S1130ED0CF93DF93182F092FEB018B8181FD03C082
S1130EE08FEF9FEF20C082FF10C04E815F812C8165
S1130EF03D81421753077CF4E881F9819F012F5FFC
S1130F003F4F28833983108306C0E885F985812FF4
S1130F100995892B29F72E813F812F5F3F4F2E831F
S1130F203F83812F902FDF91CF911F910F910895CF
S1130F30FA01AA27283051F1203181F1E8946F9306
S1130F406E7F6E5F7F4F8F4F9F4FAF4FB1E03ED0AC
S1130F50B4E03CD0670F781F891F9A1FA11D680F4A
S1130F60791F8A1F911DA11D6A0F711D811D911D7D
S1130F70A11D20D009F468943F912AE0269F1124F2
S1130F803019305D3193DEF6CF010895462F477056
S1130F90405D4193B3E00FD0C9F7F6CF462F4F70B1
S1130FA0405D4A3318F0495D31FD4052419302D00F
S1130FB0A9F7EACFB4E0A6959795879577956795B5
S1130FC0BA95C9F700976105710508959B01AC01B5
S1130FD00A2E06945795479537952795BA95C9F7DC
S1130FE0620F731F841F951FA01D08952F923F92B7
S1130FF04F925F926F927F928F929F92AF92BF9225
S1131000CF92DF92EF92FF920F931F93CF93DF93D0
S1131010CDB7DEB7CA1BDB0BCDBFDEBF09942A8870
S1131020398848885F846E847D848C849B84AA84F8
S1131030B984C884DF80EE80FD800C811B81AA8185
S1131040B981CE0FD11DCDBFDEBFED010895F89457
S1051050FFCFCC
S113105200000003000000000D0516050000496EA3
S1131062697469616C697A696E67204441432056E8
S1131072616C20666F7220566269617320746F20FE
S113108225640D0A0053657474696E6720444143F4
S11310922056616C20666F72206F70616D70696E8C
S11310A220746F2025640D0A004441432056616C6C
S11310B220666F72205662696173207365742074AE
S11310C26F2025640D0A00566869676820666F758B
S11310D26E643A2025640D0A00566C6F7720666FA1
S11110E2756E643A2025640D0A002564200012
S9030000FC
