:2040000010C00091780005FD6AC0F092400608E1009353060FEF0A950023E9F7009148067F
:2040200003FFECC0E0E0F0E0079116910F3F19F41F3F09F4E3C053C03091CF0137FDFCCF07
:204040003BB72BBFF8012091CA0113E21093CA010A01E8952093CA013BBF08953BB72BBF33
:20406000F8012091CA014093CA013DE930933400E8952093CA013BBF089520E006D0E9F7C8
:204080000895259102D0E9F708952D9301501040202F212B089580E69FE4FC0105911491C4
:2040A000FC013296A591B491FC01349625913491422F432B19F0F901E4DF01C0DEDF0696BF
:2040C0001FE48C36910748F3089501E70DBF00E20EBFC4E2D6E20E944B200E942E21F0926A
:2040E000530600910020109101200A3A154511F00C940000F0920020F092012000E20093FB
:204100007800F6CFAA84998488847F806E805D804C80BB81AA8199818881F0E0EC0FFD1F04
:20412000EF010895BD01D801F90104C021912D9341505040242F252BC9F7DB010895AA92F2
:204140009A928A927A926A925A924A92BA93AA939A938A930895AF93BF93D80101900D9239
:2041600041505040D9F7BF91AF9108954091CA01E22FF32F0093CA0104914093CA01089524
:2041800040E04BBFF80158ED54BF208308954A951AF0000F111FFBCF08954A951AF0169541
:2041A0000795FBCF0895FFFFFFFFFFFFFFFFFFFFFFFFFFFFFFFFFFFFFFFFFFFFFFFFFFFF16
:2041C000FFFFFFFFFFFFFFFFFFFFFFFFFFFFFFFFFFFFFFFFFFFFFFFFFFFFFFFFFFFFFFFFFF
:2041E000FFFFFFFFFFFFFFFFFFFFFFFFFFFFFFFFFFFFFFFF0C946F250C94A72566CF0FBF30
:2042000008954FB7F8941095F0E0E02FE059FF4F008101230083042FF2CFB90198018B0169
:2042200076C361E08BC3B90198018B01B5C2E4C262E770E2260F371F0C94922068EE70E29A
:20424000F9CFF8940AEA15E5E0E0F0E20083118320917900216009E739D0FFCF27E402EA0A
:2042600035D005D07894DCD316D4FFCFC8CF24E001E42CD02DE126D0009362002CE122D07D
:20428000009363000FB7F894E0E5F0E0108112601083ECDF0091510001FBE6F721E000E440
:2042A00015D0E6E5F0E00081097F008300E807870BEB008B008104600083E0E600810160EB
:2042C0000083089530E002E00C94B62010E00C94C02000E00093EC2053D000919000009390
:2042E000E820009191000093E920009192000093EA20009193000093EB200091D00101FB18
:2043000016F001E001C000E0D9C024D2A6E0B1E2009106210076003289F5109107210C9129
:20432000569707FF0FC0125041F01A9529F526E030E09E968D011FD11DC0D4968CD5E1F01A
:2043400009951DC01A9521F01350B1F419D012C00091EC20002321F001E211E2929608C0C8
:2043600020E430E00FE211E206D10CEC11E294960D931C9301E003C00FE05AD000E0E7C1C5
:2043800000C07CD100E006A702E002AB00E004A305A302A303A30895F3DF10E06FD114AB1C
:2043A00015ABEFE2F1E230812181203001E0300709F422C0203003E0300709F43FC0213048
:2043C000300709F45BC0203004E0300749F4B3D207FDFDCF40E200E010D38AD200E06EC042
:2043E0002330300721F401E00093EC2008952330364009F452C072C1ADD130D011F07DD02A
:2044000016C0ACE1B1E22D913C919D972030304019F403E00DD002C027D011F400E007C0F5
:20442000A6D00CE013E294960D931C9301E08FC100931E210AE000932221089515D019F05E
:2044400025D011F416D04AC109D019F00DE712E202C007EA12E204AB15AB32C00091ED2001
:204460001091EE200123089501E311E24DD00023089503E006A70AE002AB0895F5DF19F077
:2044800005D011F4F6DF2AC177D01AC0E0EFF0E222A533A5203030400895EFE2F1E202819D
:2044A000002359F40381013118F008E0C1DF16C109D000E0E3D006AB07AB02C00093ED203E
:2044C00001E00895033041F0023031F0043021F0053011F011E001C010E01093EE2012E0E7
:2044E000019FF001E356FF4D6081F18106E111E2E62F48E050E00C94AB2003E000931E21EC
:2045000002E000932221EAC0BD01D8015C91F8010181402FB3D006AB57AB12961D9130E02F
:204520000C9120E006A017A020A431A4001511052205330520F008E09DDF00E006C0041B25
:20454000150B0F5F1F4F5AD001E0DB010895C4D3FD0140AD51AD4BD09A96ED91FC919B97D3
:204560000995FD0120AD31AD04D001E0F0C020E034E000E711E2ADC26BD435D0012B31F49D
:2045800000E01CEF3BD080E094E00BC02CD0202F212B41F1143010F4C80102C080E094E016
:2045A0002BD0AC0124D062A5F3A5E62F099500E711E207C0FD0126A937A92F5F3F4F26ABD2
:2045C00037AB9C010197232B09F3F80121918F012F3F81F305E000931E2101E013E2FD01D2
:2045E00004AB15ABCFC3FD0100AD11AD089526A937A900E711E20895081B190B00AF11AFD8
:2046000008953CD026A907A9009370212093712122E030E0AEDF54CF9A938A932FD006A94F
:2046200017A9202F2F7380E094E0821B904060AD71AD6817790710F4AB0101C0AC01622FAF
:2046400070E020E731E2260F371F64A5F5A5E62F099514D0C9DF8017910720F000E004A3BD
:2046600005A308C006A917A992D306AB17ABBCDFC3DF7DDF01E0899199910895E0EFF0E287
:204680000895009108210F770093C3040895F6DF208D018D0A9529F00A95A1F00A95B9F006
:2046A0001DC0E0ECF0E2228930E072968F0163DFE5DF0FD320A131A10217130710F400A3D7
:2046C00011A3FECEE0ECF0E222813381EFCF222329F424E030E004EE10E2E9CF00E0089518
:2046E00039D0CCDF06890F7189F51789068907FF14C0112329F0165041F0125041F026C013
:2047000022E030E000E715E206C0C1DF20C021E030E002E715E22FDF17C0155019F01450BB
:2047200031F014C001E413E202A313A30DC001E010E0A0E7B5E20D931C93008D009372258D
:20474000002311F0C6DD03C001E001C000E0A991B9910895BA93AA93089590DF00E000A313
:2047600001A302A303A304A305A3068907FF03C0B0D2012B81F000910621007619F4B0DFBA
:20478000002341F4009106210F71013021F4BDDD002309F095CEA2CFB90160D0208127FD0A
:2047A000FDCFECEC208128602083105F98018B0143DDECECF1E00081077F82CD0E94A6206E
:2047C000C801A22FB091CA013FD048D0008107FDFDCF0BD09093C1018093C001A093C4012F
:2047E00005E33FD0B093CA01CDC203E30093CA0100E00093C20108950E94A420C801D90105
:204800002A010DC08D0133D045E08C010E94CD2049D08096909600EE400E0FEF501E042DA0
:20482000052979F0082F0F7129F400E2401600E0500640F72D918C01C1DF01960FEF400E9A
:20484000EDCFE6E00C94872009D0008107FDFDCF008101FF02C006E304D00895EFECF1E01C
:2048600008950093CA0121E00BEC11E030CD3091CA012091CF0127FDFCCF23E32093CA01D7
:2048800020E02093C2012093C1012093C001F80141918F014093C40123952032B0F3309356
:2048A000CA0108958A93DADF108117FDFDCF10E2019F9EDF1092C1010092C0018091CA01A7
:2048C00005E320C09A938A93802F9091CA01BCDF32D007FDFDCF89DF0093C1010093C001AD
:2048E0008093C40103950032C8F39093CA01C3CE8A930FEFE7DFB2DF008107FDFDCF809108
:20490000CA0100E3AEDF8093CA0189910895BC01C80111D007FDFDCF042F052B51F0FC01EF
:204920000491F90100832F5F3F4F019641505040F3CFCB0108950091CF0108950E949F2007
:204940002297D9013A01A62E2801912F80E006C02091CF0127FDFCCF45E24FD0062D07298D
:20496000F9F19924E8DF07FDFDCF00E8802EAA2061F0FC01059114910883198308810F3F12
:204980001F4F31F09924939403C00FEF08830983062D072979F04816590629F425D00883A6
:2049A000062D072939F0FC0131964E165F0611F41BD00983488159818C0120E030E00E9480
:2049C0001C2002968A9499F69C013A959920890109F0BECF2091CF0127FDFCCF44E2BDCFFF
:2049E0002296EBE00C9482200FEF600E701E01E0400E00E0501E0D91089520E030E00C9490
:204A00002E20FDCB2AE107D00093FA042BE103D00093FB04089556DC0F3F09F40FE10895F5
:204A20000E94A72000E00093600010E4EADB23E004E44CDC7ED20064008301E00093600063
:204A4000AFB7F89400E010E028E0029FF001E051FF4D158303950230C0F3D4DF0091C00460
:204A60000093C00466D20068008300810061008380EF90E20496E6EC80839183E0EC38D11E
:204A80000FEF0583E8EC0081016000830A2FB9DFE3E00C948A200FB7F89410E41093CA04C2
:204AA00010E21093CA04E1ECF4E0108111601083E9EC108112601083E8EC10811064108386
:204AC000E9EC108111601083E8EC10811068108398CFD4DD068F178F20A331A3089564D041
:204AE0000091CB0407FF02C000E82EC008D2002361F5EBEC1FD204FF1EC000E117D200E012
:204B00000093722501E010E0009370251093712500E00093C30420E430E059D020E430E0AE
:204B200010E000E854D003E715E20093F8201093F9202CD10AC0008106FF02C000E404C07A
:204B4000008105FF02C000E2F1D11ED018952CD0A4D101FD02C092D1B1F402E00093CC0451
:204B60000091C50432D0F801008105FF06C02DD020E2F80126930ED106C000E827D020E25E
:204B8000F8012693B8D0E1CF8FBF0991199129913991499159916991799109901990299052
:204BA0003990E991F991B1CE8A93FA93EA933A922A921A920A927A936A935A934A933A9311
:204BC0002A931A930A938FB7089500E01AC08A932051304041F02051304039F02052304016
:204BE00031F080E005C081E003C082E001C083E0EDDF20E0F801218326E0208380648183CB
:204C000084CE64EF70E2202F2F70220F402F440F00E010E0001F020F43E00E94C720060FFB
:204C2000171F08959D01E8EC85D10F7D008300810F7D008350D102E00593AEEFB0E200E090
:204C400010E00D930C93539600E2069300E406934CD1069300E406931D931D931D931C9352
:204C600015971D931C9312AFD901089535D0EDD0002331F0033011F0043009F439D186D026
:204C8000FD0106811781083050E0104009F548E023E735E206E011E2CFDAE8ECF4E028D0D6
:204CA00027D05BDD002311F4FBD012C0FD01068907FF05C016D002E006AF1DD009C009D09C
:204CC000012B11F4F9D004C00CD001E006AF09D13ECD048D158D0895BA93AA93A0EFB0E244
:204CE000089500E002AF03AFDC960D930C93089500810062E5CAA8D0033011F446D042C02C
:204D00009FD080A191A1801B910B282F292BE9F48ED0DFDF0217130721F00091B325002326
:204D200011F0DCD02FC004A115A120E00030120799F0F8010995002379F000E0FD0104AFF6
:204D4000FC960183FD0180A191A1803400E0900718F080E490E001C001E00093B325FD01DA
:204D600086879787068D178D24AD35AD020F131F008B118BDC960D91132F09D01C930E9339
:204D8000AAD0B0D0E4E00C948920B2D04BCF080F191F089559D0043011F4F7DF47C0FD0147
:204DA0008681978164AD75AD20A131A18B01EFDF2017310718F4C901861B970BAC0123E775
:204DC00035E2068D178D060F171F36DA39D0DFDF04AF15AF8034904031F42DD0448D558D93
:204DE0002417350750F000A311A3949634D019F00995002391F060D019C020A131A1201759
:204E0000310799F49496ED91FC91959700E0E030F00719F00995002311F442D007C010D0FD
:204E200006D000E0DC960D930C935BD0ABCF03D022AF33AF089522AD33AD200F311F089578
:204E4000FD0104AD15AD089503D000912E2108950E94A62043CFED91FC9100E0E030F00788
:204E600008951BD001FD09C009D039F4EEDF013009F422C0043009F416D008955ED0F7CA5D
:204E80000CD001FD09C0FADF39F4DFDF023009F425C0033009F407D008950091CC040895F5
:204EA00005E000932E21EDEFF0E204E00593E5EFF0E204E0059308951B2F2A2FDFDB03E002
:204EC000DF01DE960C9300E00687078704D00AD0A22FB12F0895ECEFF0E2089504E0009327
:204EE0002E2103D002E006930895E4EFF0E2089531DCA2E1B1E2AFDF09F0099528CCEBEC23
:204F000019D002FF08C0F093CA040091FC2006FF0BC0A7DF09C0008101FF07C002E006D0C2
:204F20000091F42006FDACDFCBCAD8CB0093CA040895E0ECF4E000810895AFDF00FFCECB24
:204F400001E00093CC04D1DF00E80693C4DF00E8069301E0EBDFC9DF00E1069387DEB0CA0C
:204F6000CC04E8200000760072206C4F040000004000000D2111210004000013211721037F
:204F800000000018210000040000001E210000000000000000000075207D20952095208574
:204FA000208D2095209520952095209520952095209520952095209520000902120001013E
:204FC00000C0320904000000FF0000001201000200000040EB03E32F040000000001040372
:024FE0000904C2
:00000001FF
